{
	"_format": "hh-sol-artifact-1",
	"contractName": "CertificateNFT",
	"sourceName": "contracts/CertificateNFT.sol",
	"abi": [
		{
			"inputs": [],
			"stateMutability": "nonpayable",
			"type": "constructor"
		},
		{
			"inputs": [
				{
					"internalType": "address",
					"name": "sender",
					"type": "address"
				},
				{
					"internalType": "uint256",
					"name": "tokenId",
					"type": "uint256"
				},
				{
					"internalType": "address",
					"name": "owner",
					"type": "address"
				}
			],
			"name": "ERC721IncorrectOwner",
			"type": "error"
		},
		{
			"inputs": [
				{
					"internalType": "address",
					"name": "operator",
					"type": "address"
				},
				{
					"internalType": "uint256",
					"name": "tokenId",
					"type": "uint256"
				}
			],
			"name": "ERC721InsufficientApproval",
			"type": "error"
		},
		{
			"inputs": [
				{
					"internalType": "address",
					"name": "approver",
					"type": "address"
				}
			],
			"name": "ERC721InvalidApprover",
			"type": "error"
		},
		{
			"inputs": [
				{
					"internalType": "address",
					"name": "operator",
					"type": "address"
				}
			],
			"name": "ERC721InvalidOperator",
			"type": "error"
		},
		{
			"inputs": [
				{
					"internalType": "address",
					"name": "owner",
					"type": "address"
				}
			],
			"name": "ERC721InvalidOwner",
			"type": "error"
		},
		{
			"inputs": [
				{
					"internalType": "address",
					"name": "receiver",
					"type": "address"
				}
			],
			"name": "ERC721InvalidReceiver",
			"type": "error"
		},
		{
			"inputs": [
				{
					"internalType": "address",
					"name": "sender",
					"type": "address"
				}
			],
			"name": "ERC721InvalidSender",
			"type": "error"
		},
		{
			"inputs": [
				{
					"internalType": "uint256",
					"name": "tokenId",
					"type": "uint256"
				}
			],
			"name": "ERC721NonexistentToken",
			"type": "error"
		},
		{
			"anonymous": false,
			"inputs": [
				{
					"indexed": true,
					"internalType": "address",
					"name": "owner",
					"type": "address"
				},
				{
					"indexed": true,
					"internalType": "address",
					"name": "approved",
					"type": "address"
				},
				{
					"indexed": true,
					"internalType": "uint256",
					"name": "tokenId",
					"type": "uint256"
				}
			],
			"name": "Approval",
			"type": "event"
		},
		{
			"anonymous": false,
			"inputs": [
				{
					"indexed": true,
					"internalType": "address",
					"name": "owner",
					"type": "address"
				},
				{
					"indexed": true,
					"internalType": "address",
					"name": "operator",
					"type": "address"
				},
				{
					"indexed": false,
					"internalType": "bool",
					"name": "approved",
					"type": "bool"
				}
			],
			"name": "ApprovalForAll",
			"type": "event"
		},
		{
			"anonymous": false,
			"inputs": [
				{
					"indexed": false,
					"internalType": "uint256",
					"name": "_fromTokenId",
					"type": "uint256"
				},
				{
					"indexed": false,
					"internalType": "uint256",
					"name": "_toTokenId",
					"type": "uint256"
				}
			],
			"name": "BatchMetadataUpdate",
			"type": "event"
		},
		{
			"anonymous": false,
			"inputs": [
				{
					"indexed": true,
					"internalType": "address",
					"name": "to",
					"type": "address"
				},
				{
					"indexed": true,
					"internalType": "uint256",
					"name": "tokenId",
					"type": "uint256"
				}
			],
			"name": "BoundTokenMinted",
			"type": "event"
		},
		{
			"anonymous": false,
			"inputs": [
				{
					"indexed": false,
					"internalType": "uint256",
					"name": "_tokenId",
					"type": "uint256"
				}
			],
			"name": "MetadataUpdate",
			"type": "event"
		},
		{
			"anonymous": false,
			"inputs": [
				{
					"indexed": true,
					"internalType": "address",
					"name": "from",
					"type": "address"
				},
				{
					"indexed": true,
					"internalType": "address",
					"name": "to",
					"type": "address"
				},
				{
					"indexed": true,
					"internalType": "uint256",
					"name": "tokenId",
					"type": "uint256"
				}
			],
			"name": "Transfer",
			"type": "event"
		},
		{
			"inputs": [],
			"name": "_nextTokenId",
			"outputs": [
				{
					"internalType": "uint256",
					"name": "",
					"type": "uint256"
				}
			],
			"stateMutability": "view",
			"type": "function"
		},
		{
			"inputs": [
				{
					"internalType": "address",
					"name": "to",
					"type": "address"
				},
				{
					"internalType": "uint256",
					"name": "tokenId",
					"type": "uint256"
				}
			],
			"name": "approve",
			"outputs": [],
			"stateMutability": "nonpayable",
			"type": "function"
		},
		{
			"inputs": [
				{
					"internalType": "uint256",
					"name": "_tokenId",
					"type": "uint256"
				}
			],
			"name": "approveBoundNFT",
			"outputs": [],
			"stateMutability": "nonpayable",
			"type": "function"
		},
		{
			"inputs": [
				{
					"internalType": "uint256",
					"name": "",
					"type": "uint256"
				}
			],
			"name": "approvedNFT",
			"outputs": [
				{
					"internalType": "bool",
					"name": "",
					"type": "bool"
				}
			],
			"stateMutability": "view",
			"type": "function"
		},
		{
			"inputs": [
				{
					"internalType": "address",
					"name": "owner",
					"type": "address"
				}
			],
			"name": "balanceOf",
			"outputs": [
				{
					"internalType": "uint256",
					"name": "",
					"type": "uint256"
				}
			],
			"stateMutability": "view",
			"type": "function"
		},
		{
			"inputs": [
				{
					"internalType": "uint256",
					"name": "",
					"type": "uint256"
				}
			],
			"name": "boundNFTs",
			"outputs": [
				{
					"internalType": "address",
					"name": "",
					"type": "address"
				}
			],
			"stateMutability": "view",
			"type": "function"
		},
		{
			"inputs": [
				{
					"internalType": "uint256",
					"name": "tokenId",
					"type": "uint256"
				}
			],
			"name": "getApproved",
			"outputs": [
				{
					"internalType": "address",
					"name": "",
					"type": "address"
				}
			],
			"stateMutability": "view",
			"type": "function"
		},
		{
			"inputs": [],
			"name": "initialOwner",
			"outputs": [
				{
					"internalType": "address",
					"name": "",
					"type": "address"
				}
			],
			"stateMutability": "view",
			"type": "function"
		},
		{
			"inputs": [
				{
					"internalType": "address",
					"name": "owner",
					"type": "address"
				},
				{
					"internalType": "address",
					"name": "operator",
					"type": "address"
				}
			],
			"name": "isApprovedForAll",
			"outputs": [
				{
					"internalType": "bool",
					"name": "",
					"type": "bool"
				}
			],
			"stateMutability": "view",
			"type": "function"
		},
		{
			"inputs": [
				{
					"internalType": "address",
					"name": "_to",
					"type": "address"
				},
				{
					"internalType": "uint256",
					"name": "_tokenId",
					"type": "uint256"
				},
				{
					"internalType": "string",
					"name": "uri",
					"type": "string"
				}
			],
			"name": "mintSoulBoundToken",
			"outputs": [],
			"stateMutability": "nonpayable",
			"type": "function"
		},
		{
			"inputs": [],
			"name": "name",
			"outputs": [
				{
					"internalType": "string",
					"name": "",
					"type": "string"
				}
			],
			"stateMutability": "view",
			"type": "function"
		},
		{
			"inputs": [
				{
					"internalType": "uint256",
					"name": "tokenId",
					"type": "uint256"
				}
			],
			"name": "ownerOf",
			"outputs": [
				{
					"internalType": "address",
					"name": "",
					"type": "address"
				}
			],
			"stateMutability": "view",
			"type": "function"
		},
		{
			"inputs": [
				{
					"internalType": "address",
					"name": "from",
					"type": "address"
				},
				{
					"internalType": "address",
					"name": "to",
					"type": "address"
				},
				{
					"internalType": "uint256",
					"name": "tokenId",
					"type": "uint256"
				}
			],
			"name": "safeTransferFrom",
			"outputs": [],
			"stateMutability": "nonpayable",
			"type": "function"
		},
		{
			"inputs": [
				{
					"internalType": "address",
					"name": "from",
					"type": "address"
				},
				{
					"internalType": "address",
					"name": "to",
					"type": "address"
				},
				{
					"internalType": "uint256",
					"name": "tokenId",
					"type": "uint256"
				},
				{
					"internalType": "bytes",
					"name": "data",
					"type": "bytes"
				}
			],
			"name": "safeTransferFrom",
			"outputs": [],
			"stateMutability": "nonpayable",
			"type": "function"
		},
		{
			"inputs": [
				{
					"internalType": "address",
					"name": "operator",
					"type": "address"
				},
				{
					"internalType": "bool",
					"name": "approved",
					"type": "bool"
				}
			],
			"name": "setApprovalForAll",
			"outputs": [],
			"stateMutability": "nonpayable",
			"type": "function"
		},
		{
			"inputs": [
				{
					"internalType": "bytes4",
					"name": "interfaceId",
					"type": "bytes4"
				}
			],
			"name": "supportsInterface",
			"outputs": [
				{
					"internalType": "bool",
					"name": "",
					"type": "bool"
				}
			],
			"stateMutability": "view",
			"type": "function"
		},
		{
			"inputs": [],
			"name": "symbol",
			"outputs": [
				{
					"internalType": "string",
					"name": "",
					"type": "string"
				}
			],
			"stateMutability": "view",
			"type": "function"
		},
		{
			"inputs": [
				{
					"internalType": "uint256",
					"name": "tokenId",
					"type": "uint256"
				}
			],
			"name": "tokenURI",
			"outputs": [
				{
					"internalType": "string",
					"name": "",
					"type": "string"
				}
			],
			"stateMutability": "view",
			"type": "function"
		},
		{
			"inputs": [
				{
					"internalType": "address",
					"name": "from",
					"type": "address"
				},
				{
					"internalType": "address",
					"name": "to",
					"type": "address"
				},
				{
					"internalType": "uint256",
					"name": "tokenId",
					"type": "uint256"
				}
			],
			"name": "transferFrom",
			"outputs": [],
			"stateMutability": "nonpayable",
			"type": "function"
		}
	],
	"bytecode": "0x608060405234801561001057600080fd5b506040518060400160405280601381526020017f53747564656e74204365727469666963617465000000000000000000000000008152506040518060400160405280600381526020017f5343540000000000000000000000000000000000000000000000000000000000815250816000908161008c9190610335565b50806001908161009c9190610335565b50505033600760006101000a81548173ffffffffffffffffffffffffffffffffffffffff021916908373ffffffffffffffffffffffffffffffffffffffff160217905550610407565b600081519050919050565b7f4e487b7100000000000000000000000000000000000000000000000000000000600052604160045260246000fd5b7f4e487b7100000000000000000000000000000000000000000000000000000000600052602260045260246000fd5b6000600282049050600182168061016657607f821691505b6020821081036101795761017861011f565b5b50919050565b60008190508160005260206000209050919050565b60006020601f8301049050919050565b600082821b905092915050565b6000600883026101e17fffffffffffffffffffffffffffffffffffffffffffffffffffffffffffffffff826101a4565b6101eb86836101a4565b95508019841693508086168417925050509392505050565b6000819050919050565b6000819050919050565b600061023261022d61022884610203565b61020d565b610203565b9050919050565b6000819050919050565b61024c83610217565b61026061025882610239565b8484546101b1565b825550505050565b600090565b610275610268565b610280818484610243565b505050565b5b818110156102a45761029960008261026d565b600181019050610286565b5050565b601f8211156102e9576102ba8161017f565b6102c384610194565b810160208510156102d2578190505b6102e66102de85610194565b830182610285565b50505b505050565b600082821c905092915050565b600061030c600019846008026102ee565b1980831691505092915050565b600061032583836102fb565b9150826002028217905092915050565b61033e826100e5565b67ffffffffffffffff811115610357576103566100f0565b5b610361825461014e565b61036c8282856102a8565b600060209050601f83116001811461039f576000841561038d578287015190505b6103978582610319565b8655506103ff565b601f1984166103ad8661017f565b60005b828110156103d5578489015182556001820191506020850194506020810190506103b0565b868310156103f257848901516103ee601f8916826102fb565b8355505b6001600288020188555050505b505050505050565b612a44806104166000396000f3fe608060405234801561001057600080fd5b50600436106101215760003560e01c806370a08231116100ad578063bb17ad8911610071578063bb17ad891461031a578063be73b6611461034a578063c87b56dd14610366578063dae8c07714610396578063e985e9c5146103b257610121565b806370a082311461026457806395d89b4114610294578063a22cb465146102b2578063a5164250146102ce578063b88d4fde146102fe57610121565b806323b872dd116100f457806323b872dd146101c057806329ba7bb2146101dc57806342842e0e146101fa5780634a60f620146102165780636352211e1461023457610121565b806301ffc9a71461012657806306fdde0314610156578063081812fc14610174578063095ea7b3146101a4575b600080fd5b610140600480360381019061013b9190611d2a565b6103e2565b60405161014d9190611d72565b60405180910390f35b61015e6103f4565b60405161016b9190611e1d565b60405180910390f35b61018e60048036038101906101899190611e75565b610486565b60405161019b9190611ee3565b60405180910390f35b6101be60048036038101906101b99190611f2a565b6104a2565b005b6101da60048036038101906101d59190611f6a565b6104b8565b005b6101e46105ba565b6040516101f19190611ee3565b60405180910390f35b610214600480360381019061020f9190611f6a565b6105e0565b005b61021e610600565b60405161022b9190611fcc565b60405180910390f35b61024e60048036038101906102499190611e75565b610606565b60405161025b9190611ee3565b60405180910390f35b61027e60048036038101906102799190611fe7565b610618565b60405161028b9190611fcc565b60405180910390f35b61029c6106d2565b6040516102a99190611e1d565b60405180910390f35b6102cc60048036038101906102c79190612040565b610764565b005b6102e860048036038101906102e39190611e75565b61077a565b6040516102f59190611d72565b60405180910390f35b610318600480360381019061031391906121b5565b61079a565b005b610334600480360381019061032f9190611e75565b6107bf565b6040516103419190611ee3565b60405180910390f35b610364600480360381019061035f91906122d9565b6107f2565b005b610380600480360381019061037b9190611e75565b610991565b60405161038d9190611e1d565b60405180910390f35b6103b060048036038101906103ab9190611e75565b6109a3565b005b6103cc60048036038101906103c79190612348565b610a62565b6040516103d99190611d72565b60405180910390f35b60006103ed82610af6565b9050919050565b606060008054610403906123b7565b80601f016020809104026020016040519081016040528092919081815260200182805461042f906123b7565b801561047c5780601f106104515761010080835404028352916020019161047c565b820191906000526020600020905b81548152906001019060200180831161045f57829003601f168201915b5050505050905090565b600061049182610b57565b5061049b82610bdf565b9050919050565b6104b482826104af610c1c565b610c24565b5050565b600073ffffffffffffffffffffffffffffffffffffffff168273ffffffffffffffffffffffffffffffffffffffff160361052a5760006040517f64a0ae920000000000000000000000000000000000000000000000000000000081526004016105219190611ee3565b60405180910390fd5b600061053e8383610539610c1c565b610c36565b90508373ffffffffffffffffffffffffffffffffffffffff168173ffffffffffffffffffffffffffffffffffffffff16146105b4578382826040517f64283d7b0000000000000000000000000000000000000000000000000000000081526004016105ab939291906123e8565b60405180910390fd5b50505050565b600760009054906101000a900473ffffffffffffffffffffffffffffffffffffffff1681565b6105fb8383836040518060200160405280600081525061079a565b505050565b60085481565b600061061182610b57565b9050919050565b60008073ffffffffffffffffffffffffffffffffffffffff168273ffffffffffffffffffffffffffffffffffffffff160361068b5760006040517f89c62b640000000000000000000000000000000000000000000000000000000081526004016106829190611ee3565b60405180910390fd5b600360008373ffffffffffffffffffffffffffffffffffffffff1673ffffffffffffffffffffffffffffffffffffffff168152602001908152602001600020549050919050565b6060600180546106e1906123b7565b80601f016020809104026020016040519081016040528092919081815260200182805461070d906123b7565b801561075a5780601f1061072f5761010080835404028352916020019161075a565b820191906000526020600020905b81548152906001019060200180831161073d57829003601f168201915b5050505050905090565b61077661076f610c1c565b8383610d66565b5050565b60096020528060005260406000206000915054906101000a900460ff1681565b6107a58484846104b8565b6107b96107b0610c1c565b85858585610ed5565b50505050565b600a6020528060005260406000206000915054906101000a900473ffffffffffffffffffffffffffffffffffffffff1681565b600760009054906101000a900473ffffffffffffffffffffffffffffffffffffffff1673ffffffffffffffffffffffffffffffffffffffff163373ffffffffffffffffffffffffffffffffffffffff1614610882576040517f08c379a00000000000000000000000000000000000000000000000000000000081526004016108799061246b565b60405180910390fd5b6009600083815260200190815260200160002060009054906101000a900460ff166108e2576040517f08c379a00000000000000000000000000000000000000000000000000000000081526004016108d9906124d7565b60405180910390fd5b6108ec8383611086565b6108f682826110a4565b33600a600084815260200190815260200160002060006101000a81548173ffffffffffffffffffffffffffffffffffffffff021916908373ffffffffffffffffffffffffffffffffffffffff160217905550818373ffffffffffffffffffffffffffffffffffffffff167f9ca57382c5a36c4f09925c3563dea39c2fb2a03d057f395afc2d472189eca49b60405160405180910390a3505050565b606061099c82611100565b9050919050565b600760009054906101000a900473ffffffffffffffffffffffffffffffffffffffff1673ffffffffffffffffffffffffffffffffffffffff163373ffffffffffffffffffffffffffffffffffffffff1614610a33576040517f08c379a0000000000000000000000000000000000000000000000000000000008152600401610a2a9061246b565b60405180910390fd5b60016009600083815260200190815260200160002060006101000a81548160ff02191690831515021790555050565b6000600560008473ffffffffffffffffffffffffffffffffffffffff1673ffffffffffffffffffffffffffffffffffffffff16815260200190815260200160002060008373ffffffffffffffffffffffffffffffffffffffff1673ffffffffffffffffffffffffffffffffffffffff16815260200190815260200160002060009054906101000a900460ff16905092915050565b6000634906490660e01b7bffffffffffffffffffffffffffffffffffffffffffffffffffffffff1916827bffffffffffffffffffffffffffffffffffffffffffffffffffffffff19161480610b505750610b4f82611213565b5b9050919050565b600080610b63836112f5565b9050600073ffffffffffffffffffffffffffffffffffffffff168173ffffffffffffffffffffffffffffffffffffffff1603610bd657826040517f7e273289000000000000000000000000000000000000000000000000000000008152600401610bcd9190611fcc565b60405180910390fd5b80915050919050565b60006004600083815260200190815260200160002060009054906101000a900473ffffffffffffffffffffffffffffffffffffffff169050919050565b600033905090565b610c318383836001611332565b505050565b600080610c42846112f5565b9050600073ffffffffffffffffffffffffffffffffffffffff168173ffffffffffffffffffffffffffffffffffffffff161480610cab5750600073ffffffffffffffffffffffffffffffffffffffff168573ffffffffffffffffffffffffffffffffffffffff16145b610cea576040517f08c379a0000000000000000000000000000000000000000000000000000000008152600401610ce190612569565b60405180910390fd5b600115156009600086815260200190815260200160002060009054906101000a900460ff16151514610d51576040517f08c379a0000000000000000000000000000000000000000000000000000000008152600401610d48906125d5565b60405180910390fd5b610d5c8585856114f7565b9150509392505050565b600073ffffffffffffffffffffffffffffffffffffffff168273ffffffffffffffffffffffffffffffffffffffff1603610dd757816040517f5b08ba18000000000000000000000000000000000000000000000000000000008152600401610dce9190611ee3565b60405180910390fd5b80600560008573ffffffffffffffffffffffffffffffffffffffff1673ffffffffffffffffffffffffffffffffffffffff16815260200190815260200160002060008473ffffffffffffffffffffffffffffffffffffffff1673ffffffffffffffffffffffffffffffffffffffff16815260200190815260200160002060006101000a81548160ff0219169083151502179055508173ffffffffffffffffffffffffffffffffffffffff168373ffffffffffffffffffffffffffffffffffffffff167f17307eab39ab6107e8899845ad3d59bd9653f200f220920489ca2b5937696c3183604051610ec89190611d72565b60405180910390a3505050565b60008373ffffffffffffffffffffffffffffffffffffffff163b111561107f578273ffffffffffffffffffffffffffffffffffffffff1663150b7a02868685856040518563ffffffff1660e01b8152600401610f34949392919061264a565b6020604051808303816000875af1925050508015610f7057506040513d601f19601f82011682018060405250810190610f6d91906126ab565b60015b610ff4573d8060008114610fa0576040519150601f19603f3d011682016040523d82523d6000602084013e610fa5565b606091505b506000815103610fec57836040517f64a0ae92000000000000000000000000000000000000000000000000000000008152600401610fe39190611ee3565b60405180910390fd5b805181602001fd5b63150b7a0260e01b7bffffffffffffffffffffffffffffffffffffffffffffffffffffffff1916817bffffffffffffffffffffffffffffffffffffffffffffffffffffffff19161461107d57836040517f64a0ae920000000000000000000000000000000000000000000000000000000081526004016110749190611ee3565b60405180910390fd5b505b5050505050565b6110a0828260405180602001604052806000815250611711565b5050565b806006600084815260200190815260200160002090816110c49190612884565b507ff8e1a15aba9398e019f0b49df1a4fde98ee17ae345cb5f6b5e2c27f5033e8ce7826040516110f49190611fcc565b60405180910390a15050565b606061110b82610b57565b50600060066000848152602001908152602001600020805461112c906123b7565b80601f0160208091040260200160405190810160405280929190818152602001828054611158906123b7565b80156111a55780601f1061117a576101008083540402835291602001916111a5565b820191906000526020600020905b81548152906001019060200180831161118857829003601f168201915b5050505050905060006111b6611735565b905060008151036111cb57819250505061120e565b6000825111156112005780826040516020016111e8929190612992565b6040516020818303038152906040529250505061120e565b6112098461174c565b925050505b919050565b60007f80ac58cd000000000000000000000000000000000000000000000000000000007bffffffffffffffffffffffffffffffffffffffffffffffffffffffff1916827bffffffffffffffffffffffffffffffffffffffffffffffffffffffff191614806112de57507f5b5e139f000000000000000000000000000000000000000000000000000000007bffffffffffffffffffffffffffffffffffffffffffffffffffffffff1916827bffffffffffffffffffffffffffffffffffffffffffffffffffffffff1916145b806112ee57506112ed826117b5565b5b9050919050565b60006002600083815260200190815260200160002060009054906101000a900473ffffffffffffffffffffffffffffffffffffffff169050919050565b808061136b5750600073ffffffffffffffffffffffffffffffffffffffff168273ffffffffffffffffffffffffffffffffffffffff1614155b1561149f57600061137b84610b57565b9050600073ffffffffffffffffffffffffffffffffffffffff168373ffffffffffffffffffffffffffffffffffffffff16141580156113e657508273ffffffffffffffffffffffffffffffffffffffff168173ffffffffffffffffffffffffffffffffffffffff1614155b80156113f957506113f78184610a62565b155b1561143b57826040517fa9fbf51f0000000000000000000000000000000000000000000000000000000081526004016114329190611ee3565b60405180910390fd5b811561149d57838573ffffffffffffffffffffffffffffffffffffffff168273ffffffffffffffffffffffffffffffffffffffff167f8c5be1e5ebec7d5bd14f71427d1e84f3dd0314c0f7b2291e5b200ac8c7c3b92560405160405180910390a45b505b836004600085815260200190815260200160002060006101000a81548173ffffffffffffffffffffffffffffffffffffffff021916908373ffffffffffffffffffffffffffffffffffffffff16021790555050505050565b600080611503846112f5565b9050600073ffffffffffffffffffffffffffffffffffffffff168373ffffffffffffffffffffffffffffffffffffffff16146115455761154481848661181f565b5b600073ffffffffffffffffffffffffffffffffffffffff168173ffffffffffffffffffffffffffffffffffffffff16146115d657611587600085600080611332565b6001600360008373ffffffffffffffffffffffffffffffffffffffff1673ffffffffffffffffffffffffffffffffffffffff168152602001908152602001600020600082825403925050819055505b600073ffffffffffffffffffffffffffffffffffffffff168573ffffffffffffffffffffffffffffffffffffffff1614611659576001600360008773ffffffffffffffffffffffffffffffffffffffff1673ffffffffffffffffffffffffffffffffffffffff168152602001908152602001600020600082825401925050819055505b846002600086815260200190815260200160002060006101000a81548173ffffffffffffffffffffffffffffffffffffffff021916908373ffffffffffffffffffffffffffffffffffffffff160217905550838573ffffffffffffffffffffffffffffffffffffffff168273ffffffffffffffffffffffffffffffffffffffff167fddf252ad1be2c89b69c2b068fc378daa952ba7f163c4a11628f55a4df523b3ef60405160405180910390a4809150509392505050565b61171b83836118e3565b611730611726610c1c565b6000858585610ed5565b505050565b606060405180602001604052806000815250905090565b606061175782610b57565b506000611762611735565b9050600081511161178257604051806020016040528060008152506117ad565b8061178c846119dc565b60405160200161179d929190612992565b6040516020818303038152906040525b915050919050565b60007f01ffc9a7000000000000000000000000000000000000000000000000000000007bffffffffffffffffffffffffffffffffffffffffffffffffffffffff1916827bffffffffffffffffffffffffffffffffffffffffffffffffffffffff1916149050919050565b61182a838383611aaa565b6118de57600073ffffffffffffffffffffffffffffffffffffffff168373ffffffffffffffffffffffffffffffffffffffff160361189f57806040517f7e2732890000000000000000000000000000000000000000000000000000000081526004016118969190611fcc565b60405180910390fd5b81816040517f177e802f0000000000000000000000000000000000000000000000000000000081526004016118d59291906129b6565b60405180910390fd5b505050565b600073ffffffffffffffffffffffffffffffffffffffff168273ffffffffffffffffffffffffffffffffffffffff16036119555760006040517f64a0ae9200000000000000000000000000000000000000000000000000000000815260040161194c9190611ee3565b60405180910390fd5b600061196383836000610c36565b9050600073ffffffffffffffffffffffffffffffffffffffff168173ffffffffffffffffffffffffffffffffffffffff16146119d75760006040517f73c6ac6e0000000000000000000000000000000000000000000000000000000081526004016119ce9190611ee3565b60405180910390fd5b505050565b6060600060016119eb84611b6b565b01905060008167ffffffffffffffff811115611a0a57611a0961208a565b5b6040519080825280601f01601f191660200182016040528015611a3c5781602001600182028036833780820191505090505b509050600082602001820190505b600115611a9f578080600190039150507f3031323334353637383961626364656600000000000000000000000000000000600a86061a8153600a8581611a9357611a926129df565b5b04945060008503611a4a575b819350505050919050565b60008073ffffffffffffffffffffffffffffffffffffffff168373ffffffffffffffffffffffffffffffffffffffff1614158015611b6257508273ffffffffffffffffffffffffffffffffffffffff168473ffffffffffffffffffffffffffffffffffffffff161480611b235750611b228484610a62565b5b80611b6157508273ffffffffffffffffffffffffffffffffffffffff16611b4983610bdf565b73ffffffffffffffffffffffffffffffffffffffff16145b5b90509392505050565b600080600090507a184f03e93ff9f4daa797ed6e38ed64bf6a1f0100000000000000008310611bc9577a184f03e93ff9f4daa797ed6e38ed64bf6a1f0100000000000000008381611bbf57611bbe6129df565b5b0492506040810190505b6d04ee2d6d415b85acef81000000008310611c06576d04ee2d6d415b85acef81000000008381611bfc57611bfb6129df565b5b0492506020810190505b662386f26fc100008310611c3557662386f26fc100008381611c2b57611c2a6129df565b5b0492506010810190505b6305f5e1008310611c5e576305f5e1008381611c5457611c536129df565b5b0492506008810190505b6127108310611c83576127108381611c7957611c786129df565b5b0492506004810190505b60648310611ca65760648381611c9c57611c9b6129df565b5b0492506002810190505b600a8310611cb5576001810190505b80915050919050565b6000604051905090565b600080fd5b600080fd5b60007fffffffff0000000000000000000000000000000000000000000000000000000082169050919050565b611d0781611cd2565b8114611d1257600080fd5b50565b600081359050611d2481611cfe565b92915050565b600060208284031215611d4057611d3f611cc8565b5b6000611d4e84828501611d15565b91505092915050565b60008115159050919050565b611d6c81611d57565b82525050565b6000602082019050611d876000830184611d63565b92915050565b600081519050919050565b600082825260208201905092915050565b60005b83811015611dc7578082015181840152602081019050611dac565b60008484015250505050565b6000601f19601f8301169050919050565b6000611def82611d8d565b611df98185611d98565b9350611e09818560208601611da9565b611e1281611dd3565b840191505092915050565b60006020820190508181036000830152611e378184611de4565b905092915050565b6000819050919050565b611e5281611e3f565b8114611e5d57600080fd5b50565b600081359050611e6f81611e49565b92915050565b600060208284031215611e8b57611e8a611cc8565b5b6000611e9984828501611e60565b91505092915050565b600073ffffffffffffffffffffffffffffffffffffffff82169050919050565b6000611ecd82611ea2565b9050919050565b611edd81611ec2565b82525050565b6000602082019050611ef86000830184611ed4565b92915050565b611f0781611ec2565b8114611f1257600080fd5b50565b600081359050611f2481611efe565b92915050565b60008060408385031215611f4157611f40611cc8565b5b6000611f4f85828601611f15565b9250506020611f6085828601611e60565b9150509250929050565b600080600060608486031215611f8357611f82611cc8565b5b6000611f9186828701611f15565b9350506020611fa286828701611f15565b9250506040611fb386828701611e60565b9150509250925092565b611fc681611e3f565b82525050565b6000602082019050611fe16000830184611fbd565b92915050565b600060208284031215611ffd57611ffc611cc8565b5b600061200b84828501611f15565b91505092915050565b61201d81611d57565b811461202857600080fd5b50565b60008135905061203a81612014565b92915050565b6000806040838503121561205757612056611cc8565b5b600061206585828601611f15565b92505060206120768582860161202b565b9150509250929050565b600080fd5b600080fd5b7f4e487b7100000000000000000000000000000000000000000000000000000000600052604160045260246000fd5b6120c282611dd3565b810181811067ffffffffffffffff821117156120e1576120e061208a565b5b80604052505050565b60006120f4611cbe565b905061210082826120b9565b919050565b600067ffffffffffffffff8211156121205761211f61208a565b5b61212982611dd3565b9050602081019050919050565b82818337600083830152505050565b600061215861215384612105565b6120ea565b90508281526020810184848401111561217457612173612085565b5b61217f848285612136565b509392505050565b600082601f83011261219c5761219b612080565b5b81356121ac848260208601612145565b91505092915050565b600080600080608085870312156121cf576121ce611cc8565b5b60006121dd87828801611f15565b94505060206121ee87828801611f15565b93505060406121ff87828801611e60565b925050606085013567ffffffffffffffff8111156122205761221f611ccd565b5b61222c87828801612187565b91505092959194509250565b600067ffffffffffffffff8211156122535761225261208a565b5b61225c82611dd3565b9050602081019050919050565b600061227c61227784612238565b6120ea565b90508281526020810184848401111561229857612297612085565b5b6122a3848285612136565b509392505050565b600082601f8301126122c0576122bf612080565b5b81356122d0848260208601612269565b91505092915050565b6000806000606084860312156122f2576122f1611cc8565b5b600061230086828701611f15565b935050602061231186828701611e60565b925050604084013567ffffffffffffffff81111561233257612331611ccd565b5b61233e868287016122ab565b9150509250925092565b6000806040838503121561235f5761235e611cc8565b5b600061236d85828601611f15565b925050602061237e85828601611f15565b9150509250929050565b7f4e487b7100000000000000000000000000000000000000000000000000000000600052602260045260246000fd5b600060028204905060018216806123cf57607f821691505b6020821081036123e2576123e1612388565b5b50919050565b60006060820190506123fd6000830186611ed4565b61240a6020830185611fbd565b6124176040830184611ed4565b949350505050565b7f596f7520617265204e6f74204f776e6572000000000000000000000000000000600082015250565b6000612455601183611d98565b91506124608261241f565b602082019050919050565b6000602082019050818103600083015261248481612448565b9050919050565b7f4e4654206e6f7420617070726f76656400000000000000000000000000000000600082015250565b60006124c1601083611d98565b91506124cc8261248b565b602082019050919050565b600060208201905081810360008301526124f0816124b4565b9050919050565b7f536f756c426f756e644e46543a20746f6b656e207472616e736665722069732060008201527f6e6f7420616c6c6f776564000000000000000000000000000000000000000000602082015250565b6000612553602b83611d98565b915061255e826124f7565b604082019050919050565b6000602082019050818103600083015261258281612546565b9050919050565b7f426f756e64204e4654206e6f7420417070726f76656400000000000000000000600082015250565b60006125bf601683611d98565b91506125ca82612589565b602082019050919050565b600060208201905081810360008301526125ee816125b2565b9050919050565b600081519050919050565b600082825260208201905092915050565b600061261c826125f5565b6126268185612600565b9350612636818560208601611da9565b61263f81611dd3565b840191505092915050565b600060808201905061265f6000830187611ed4565b61266c6020830186611ed4565b6126796040830185611fbd565b818103606083015261268b8184612611565b905095945050505050565b6000815190506126a581611cfe565b92915050565b6000602082840312156126c1576126c0611cc8565b5b60006126cf84828501612696565b91505092915050565b60008190508160005260206000209050919050565b60006020601f8301049050919050565b600082821b905092915050565b60006008830261273a7fffffffffffffffffffffffffffffffffffffffffffffffffffffffffffffffff826126fd565b61274486836126fd565b95508019841693508086168417925050509392505050565b6000819050919050565b600061278161277c61277784611e3f565b61275c565b611e3f565b9050919050565b6000819050919050565b61279b83612766565b6127af6127a782612788565b84845461270a565b825550505050565b600090565b6127c46127b7565b6127cf818484612792565b505050565b5b818110156127f3576127e86000826127bc565b6001810190506127d5565b5050565b601f82111561283857612809816126d8565b612812846126ed565b81016020851015612821578190505b61283561282d856126ed565b8301826127d4565b50505b505050565b600082821c905092915050565b600061285b6000198460080261283d565b1980831691505092915050565b6000612874838361284a565b9150826002028217905092915050565b61288d82611d8d565b67ffffffffffffffff8111156128a6576128a561208a565b5b6128b082546123b7565b6128bb8282856127f7565b600060209050601f8311600181146128ee57600084156128dc578287015190505b6128e68582612868565b86555061294e565b601f1984166128fc866126d8565b60005b82811015612924578489015182556001820191506020850194506020810190506128ff565b86831015612941578489015161293d601f89168261284a565b8355505b6001600288020188555050505b505050505050565b600081905092915050565b600061296c82611d8d565b6129768185612956565b9350612986818560208601611da9565b80840191505092915050565b600061299e8285612961565b91506129aa8284612961565b91508190509392505050565b60006040820190506129cb6000830185611ed4565b6129d86020830184611fbd565b9392505050565b7f4e487b7100000000000000000000000000000000000000000000000000000000600052601260045260246000fdfea264697066735822122086abf4999591c41f0c381a3e479e72d499ea4608336e2e0991d97a10b7cf1c1164736f6c634300081b0033",
	"linkReferences": {},
	"deployedLinkReferences": {}
}