{
  "_format": "hh-sol-artifact-1",
  "contractName": "CertificateNFT",
  "sourceName": "contracts/CertificateNFT.sol",
  "abi": [
    {
      "inputs": [],
      "stateMutability": "nonpayable",
      "type": "constructor"
    },
    {
      "inputs": [
        {
          "internalType": "address",
          "name": "sender",
          "type": "address"
        },
        {
          "internalType": "uint256",
          "name": "tokenId",
          "type": "uint256"
        },
        {
          "internalType": "address",
          "name": "owner",
          "type": "address"
        }
      ],
      "name": "ERC721IncorrectOwner",
      "type": "error"
    },
    {
      "inputs": [
        {
          "internalType": "address",
          "name": "operator",
          "type": "address"
        },
        {
          "internalType": "uint256",
          "name": "tokenId",
          "type": "uint256"
        }
      ],
      "name": "ERC721InsufficientApproval",
      "type": "error"
    },
    {
      "inputs": [
        {
          "internalType": "address",
          "name": "approver",
          "type": "address"
        }
      ],
      "name": "ERC721InvalidApprover",
      "type": "error"
    },
    {
      "inputs": [
        {
          "internalType": "address",
          "name": "operator",
          "type": "address"
        }
      ],
      "name": "ERC721InvalidOperator",
      "type": "error"
    },
    {
      "inputs": [
        {
          "internalType": "address",
          "name": "owner",
          "type": "address"
        }
      ],
      "name": "ERC721InvalidOwner",
      "type": "error"
    },
    {
      "inputs": [
        {
          "internalType": "address",
          "name": "receiver",
          "type": "address"
        }
      ],
      "name": "ERC721InvalidReceiver",
      "type": "error"
    },
    {
      "inputs": [
        {
          "internalType": "address",
          "name": "sender",
          "type": "address"
        }
      ],
      "name": "ERC721InvalidSender",
      "type": "error"
    },
    {
      "inputs": [
        {
          "internalType": "uint256",
          "name": "tokenId",
          "type": "uint256"
        }
      ],
      "name": "ERC721NonexistentToken",
      "type": "error"
    },
    {
      "anonymous": false,
      "inputs": [
        {
          "indexed": true,
          "internalType": "address",
          "name": "owner",
          "type": "address"
        },
        {
          "indexed": true,
          "internalType": "address",
          "name": "approved",
          "type": "address"
        },
        {
          "indexed": true,
          "internalType": "uint256",
          "name": "tokenId",
          "type": "uint256"
        }
      ],
      "name": "Approval",
      "type": "event"
    },
    {
      "anonymous": false,
      "inputs": [
        {
          "indexed": true,
          "internalType": "address",
          "name": "owner",
          "type": "address"
        },
        {
          "indexed": true,
          "internalType": "address",
          "name": "operator",
          "type": "address"
        },
        {
          "indexed": false,
          "internalType": "bool",
          "name": "approved",
          "type": "bool"
        }
      ],
      "name": "ApprovalForAll",
      "type": "event"
    },
    {
      "anonymous": false,
      "inputs": [
        {
          "indexed": false,
          "internalType": "uint256",
          "name": "_fromTokenId",
          "type": "uint256"
        },
        {
          "indexed": false,
          "internalType": "uint256",
          "name": "_toTokenId",
          "type": "uint256"
        }
      ],
      "name": "BatchMetadataUpdate",
      "type": "event"
    },
    {
      "anonymous": false,
      "inputs": [
        {
          "indexed": false,
          "internalType": "uint256",
          "name": "_tokenId",
          "type": "uint256"
        }
      ],
      "name": "MetadataUpdate",
      "type": "event"
    },
    {
      "anonymous": false,
      "inputs": [
        {
          "indexed": true,
          "internalType": "address",
          "name": "from",
          "type": "address"
        },
        {
          "indexed": true,
          "internalType": "address",
          "name": "to",
          "type": "address"
        },
        {
          "indexed": true,
          "internalType": "uint256",
          "name": "tokenId",
          "type": "uint256"
        }
      ],
      "name": "Transfer",
      "type": "event"
    },
    {
      "inputs": [
        {
          "internalType": "address",
          "name": "to",
          "type": "address"
        },
        {
          "internalType": "uint256",
          "name": "tokenId",
          "type": "uint256"
        }
      ],
      "name": "approve",
      "outputs": [],
      "stateMutability": "nonpayable",
      "type": "function"
    },
    {
      "inputs": [
        {
          "internalType": "address",
          "name": "owner",
          "type": "address"
        }
      ],
      "name": "balanceOf",
      "outputs": [
        {
          "internalType": "uint256",
          "name": "",
          "type": "uint256"
        }
      ],
      "stateMutability": "view",
      "type": "function"
    },
    {
      "inputs": [
        {
          "internalType": "uint256",
          "name": "tokenId",
          "type": "uint256"
        }
      ],
      "name": "getApproved",
      "outputs": [
        {
          "internalType": "address",
          "name": "",
          "type": "address"
        }
      ],
      "stateMutability": "view",
      "type": "function"
    },
    {
      "inputs": [],
      "name": "initialOwner",
      "outputs": [
        {
          "internalType": "address",
          "name": "",
          "type": "address"
        }
      ],
      "stateMutability": "view",
      "type": "function"
    },
    {
      "inputs": [
        {
          "internalType": "address",
          "name": "owner",
          "type": "address"
        },
        {
          "internalType": "address",
          "name": "operator",
          "type": "address"
        }
      ],
      "name": "isApprovedForAll",
      "outputs": [
        {
          "internalType": "bool",
          "name": "",
          "type": "bool"
        }
      ],
      "stateMutability": "view",
      "type": "function"
    },
    {
      "inputs": [],
      "name": "name",
      "outputs": [
        {
          "internalType": "string",
          "name": "",
          "type": "string"
        }
      ],
      "stateMutability": "view",
      "type": "function"
    },
    {
      "inputs": [
        {
          "internalType": "uint256",
          "name": "tokenId",
          "type": "uint256"
        }
      ],
      "name": "ownerOf",
      "outputs": [
        {
          "internalType": "address",
          "name": "",
          "type": "address"
        }
      ],
      "stateMutability": "view",
      "type": "function"
    },
    {
      "inputs": [
        {
          "internalType": "address",
          "name": "to",
          "type": "address"
        },
        {
          "internalType": "uint256",
          "name": "tokenId",
          "type": "uint256"
        },
        {
          "internalType": "string",
          "name": "uri",
          "type": "string"
        }
      ],
      "name": "safeMint",
      "outputs": [],
      "stateMutability": "nonpayable",
      "type": "function"
    },
    {
      "inputs": [
        {
          "internalType": "address",
          "name": "from",
          "type": "address"
        },
        {
          "internalType": "address",
          "name": "to",
          "type": "address"
        },
        {
          "internalType": "uint256",
          "name": "tokenId",
          "type": "uint256"
        }
      ],
      "name": "safeTransferFrom",
      "outputs": [],
      "stateMutability": "nonpayable",
      "type": "function"
    },
    {
      "inputs": [
        {
          "internalType": "address",
          "name": "from",
          "type": "address"
        },
        {
          "internalType": "address",
          "name": "to",
          "type": "address"
        },
        {
          "internalType": "uint256",
          "name": "tokenId",
          "type": "uint256"
        },
        {
          "internalType": "bytes",
          "name": "data",
          "type": "bytes"
        }
      ],
      "name": "safeTransferFrom",
      "outputs": [],
      "stateMutability": "nonpayable",
      "type": "function"
    },
    {
      "inputs": [
        {
          "internalType": "address",
          "name": "operator",
          "type": "address"
        },
        {
          "internalType": "bool",
          "name": "approved",
          "type": "bool"
        }
      ],
      "name": "setApprovalForAll",
      "outputs": [],
      "stateMutability": "nonpayable",
      "type": "function"
    },
    {
      "inputs": [
        {
          "internalType": "bytes4",
          "name": "interfaceId",
          "type": "bytes4"
        }
      ],
      "name": "supportsInterface",
      "outputs": [
        {
          "internalType": "bool",
          "name": "",
          "type": "bool"
        }
      ],
      "stateMutability": "view",
      "type": "function"
    },
    {
      "inputs": [],
      "name": "symbol",
      "outputs": [
        {
          "internalType": "string",
          "name": "",
          "type": "string"
        }
      ],
      "stateMutability": "view",
      "type": "function"
    },
    {
      "inputs": [
        {
          "internalType": "uint256",
          "name": "tokenId",
          "type": "uint256"
        }
      ],
      "name": "tokenURI",
      "outputs": [
        {
          "internalType": "string",
          "name": "",
          "type": "string"
        }
      ],
      "stateMutability": "view",
      "type": "function"
    },
    {
      "inputs": [
        {
          "internalType": "address",
          "name": "from",
          "type": "address"
        },
        {
          "internalType": "address",
          "name": "to",
          "type": "address"
        },
        {
          "internalType": "uint256",
          "name": "tokenId",
          "type": "uint256"
        }
      ],
      "name": "transferFrom",
      "outputs": [],
      "stateMutability": "nonpayable",
      "type": "function"
    }
  ],
  "bytecode": "0x608060405234801561001057600080fd5b506040518060400160405280600d81526020017f4d794365727469666963617465000000000000000000000000000000000000008152506040518060400160405280600381526020017f4d43540000000000000000000000000000000000000000000000000000000000815250816000908161008c9190610335565b50806001908161009c9190610335565b50505033600760006101000a81548173ffffffffffffffffffffffffffffffffffffffff021916908373ffffffffffffffffffffffffffffffffffffffff160217905550610407565b600081519050919050565b7f4e487b7100000000000000000000000000000000000000000000000000000000600052604160045260246000fd5b7f4e487b7100000000000000000000000000000000000000000000000000000000600052602260045260246000fd5b6000600282049050600182168061016657607f821691505b6020821081036101795761017861011f565b5b50919050565b60008190508160005260206000209050919050565b60006020601f8301049050919050565b600082821b905092915050565b6000600883026101e17fffffffffffffffffffffffffffffffffffffffffffffffffffffffffffffffff826101a4565b6101eb86836101a4565b95508019841693508086168417925050509392505050565b6000819050919050565b6000819050919050565b600061023261022d61022884610203565b61020d565b610203565b9050919050565b6000819050919050565b61024c83610217565b61026061025882610239565b8484546101b1565b825550505050565b600090565b610275610268565b610280818484610243565b505050565b5b818110156102a45761029960008261026d565b600181019050610286565b5050565b601f8211156102e9576102ba8161017f565b6102c384610194565b810160208510156102d2578190505b6102e66102de85610194565b830182610285565b50505b505050565b600082821c905092915050565b600061030c600019846008026102ee565b1980831691505092915050565b600061032583836102fb565b9150826002028217905092915050565b61033e826100e5565b67ffffffffffffffff811115610357576103566100f0565b5b610361825461014e565b61036c8282856102a8565b600060209050601f83116001811461039f576000841561038d578287015190505b6103978582610319565b8655506103ff565b601f1984166103ad8661017f565b60005b828110156103d5578489015182556001820191506020850194506020810190506103b0565b868310156103f257848901516103ee601f8916826102fb565b8355505b6001600288020188555050505b505050505050565b6124d6806104166000396000f3fe608060405234801561001057600080fd5b50600436106100f55760003560e01c80636352211e11610097578063b88d4fde11610066578063b88d4fde14610284578063c87b56dd146102a0578063cd279c7c146102d0578063e985e9c5146102ec576100f5565b80636352211e146101ea57806370a082311461021a57806395d89b411461024a578063a22cb46514610268576100f5565b8063095ea7b3116100d3578063095ea7b31461017857806323b872dd1461019457806329ba7bb2146101b057806342842e0e146101ce576100f5565b806301ffc9a7146100fa57806306fdde031461012a578063081812fc14610148575b600080fd5b610114600480360381019061010f9190611926565b61031c565b604051610121919061196e565b60405180910390f35b61013261032e565b60405161013f9190611a19565b60405180910390f35b610162600480360381019061015d9190611a71565b6103c0565b60405161016f9190611adf565b60405180910390f35b610192600480360381019061018d9190611b26565b6103dc565b005b6101ae60048036038101906101a99190611b66565b6103f2565b005b6101b86104f4565b6040516101c59190611adf565b60405180910390f35b6101e860048036038101906101e39190611b66565b61051a565b005b61020460048036038101906101ff9190611a71565b61053a565b6040516102119190611adf565b60405180910390f35b610234600480360381019061022f9190611bb9565b61054c565b6040516102419190611bf5565b60405180910390f35b610252610606565b60405161025f9190611a19565b60405180910390f35b610282600480360381019061027d9190611c3c565b610698565b005b61029e60048036038101906102999190611db1565b6106ae565b005b6102ba60048036038101906102b59190611a71565b6106d3565b6040516102c79190611a19565b60405180910390f35b6102ea60048036038101906102e59190611ed5565b6106e5565b005b61030660048036038101906103019190611f44565b61078e565b604051610313919061196e565b60405180910390f35b600061032782610822565b9050919050565b60606000805461033d90611fb3565b80601f016020809104026020016040519081016040528092919081815260200182805461036990611fb3565b80156103b65780601f1061038b576101008083540402835291602001916103b6565b820191906000526020600020905b81548152906001019060200180831161039957829003601f168201915b5050505050905090565b60006103cb82610883565b506103d58261090b565b9050919050565b6103ee82826103e9610948565b610950565b5050565b600073ffffffffffffffffffffffffffffffffffffffff168273ffffffffffffffffffffffffffffffffffffffff16036104645760006040517f64a0ae9200000000000000000000000000000000000000000000000000000000815260040161045b9190611adf565b60405180910390fd5b60006104788383610473610948565b610962565b90508373ffffffffffffffffffffffffffffffffffffffff168173ffffffffffffffffffffffffffffffffffffffff16146104ee578382826040517f64283d7b0000000000000000000000000000000000000000000000000000000081526004016104e593929190611fe4565b60405180910390fd5b50505050565b600760009054906101000a900473ffffffffffffffffffffffffffffffffffffffff1681565b610535838383604051806020016040528060008152506106ae565b505050565b600061054582610883565b9050919050565b60008073ffffffffffffffffffffffffffffffffffffffff168273ffffffffffffffffffffffffffffffffffffffff16036105bf5760006040517f89c62b640000000000000000000000000000000000000000000000000000000081526004016105b69190611adf565b60405180910390fd5b600360008373ffffffffffffffffffffffffffffffffffffffff1673ffffffffffffffffffffffffffffffffffffffff168152602001908152602001600020549050919050565b60606001805461061590611fb3565b80601f016020809104026020016040519081016040528092919081815260200182805461064190611fb3565b801561068e5780601f106106635761010080835404028352916020019161068e565b820191906000526020600020905b81548152906001019060200180831161067157829003601f168201915b5050505050905090565b6106aa6106a3610948565b8383610b7c565b5050565b6106b98484846103f2565b6106cd6106c4610948565b85858585610ceb565b50505050565b60606106de82610e9c565b9050919050565b600760009054906101000a900473ffffffffffffffffffffffffffffffffffffffff1673ffffffffffffffffffffffffffffffffffffffff163373ffffffffffffffffffffffffffffffffffffffff1614610775576040517f08c379a000000000000000000000000000000000000000000000000000000000815260040161076c90612067565b60405180910390fd5b61077f8383610faf565b6107898282610fcd565b505050565b6000600560008473ffffffffffffffffffffffffffffffffffffffff1673ffffffffffffffffffffffffffffffffffffffff16815260200190815260200160002060008373ffffffffffffffffffffffffffffffffffffffff1673ffffffffffffffffffffffffffffffffffffffff16815260200190815260200160002060009054906101000a900460ff16905092915050565b6000634906490660e01b7bffffffffffffffffffffffffffffffffffffffffffffffffffffffff1916827bffffffffffffffffffffffffffffffffffffffffffffffffffffffff1916148061087c575061087b82611029565b5b9050919050565b60008061088f8361110b565b9050600073ffffffffffffffffffffffffffffffffffffffff168173ffffffffffffffffffffffffffffffffffffffff160361090257826040517f7e2732890000000000000000000000000000000000000000000000000000000081526004016108f99190611bf5565b60405180910390fd5b80915050919050565b60006004600083815260200190815260200160002060009054906101000a900473ffffffffffffffffffffffffffffffffffffffff169050919050565b600033905090565b61095d8383836001611148565b505050565b60008061096e8461110b565b9050600073ffffffffffffffffffffffffffffffffffffffff168373ffffffffffffffffffffffffffffffffffffffff16146109b0576109af81848661130d565b5b600073ffffffffffffffffffffffffffffffffffffffff168173ffffffffffffffffffffffffffffffffffffffff1614610a41576109f2600085600080611148565b6001600360008373ffffffffffffffffffffffffffffffffffffffff1673ffffffffffffffffffffffffffffffffffffffff168152602001908152602001600020600082825403925050819055505b600073ffffffffffffffffffffffffffffffffffffffff168573ffffffffffffffffffffffffffffffffffffffff1614610ac4576001600360008773ffffffffffffffffffffffffffffffffffffffff1673ffffffffffffffffffffffffffffffffffffffff168152602001908152602001600020600082825401925050819055505b846002600086815260200190815260200160002060006101000a81548173ffffffffffffffffffffffffffffffffffffffff021916908373ffffffffffffffffffffffffffffffffffffffff160217905550838573ffffffffffffffffffffffffffffffffffffffff168273ffffffffffffffffffffffffffffffffffffffff167fddf252ad1be2c89b69c2b068fc378daa952ba7f163c4a11628f55a4df523b3ef60405160405180910390a4809150509392505050565b600073ffffffffffffffffffffffffffffffffffffffff168273ffffffffffffffffffffffffffffffffffffffff1603610bed57816040517f5b08ba18000000000000000000000000000000000000000000000000000000008152600401610be49190611adf565b60405180910390fd5b80600560008573ffffffffffffffffffffffffffffffffffffffff1673ffffffffffffffffffffffffffffffffffffffff16815260200190815260200160002060008473ffffffffffffffffffffffffffffffffffffffff1673ffffffffffffffffffffffffffffffffffffffff16815260200190815260200160002060006101000a81548160ff0219169083151502179055508173ffffffffffffffffffffffffffffffffffffffff168373ffffffffffffffffffffffffffffffffffffffff167f17307eab39ab6107e8899845ad3d59bd9653f200f220920489ca2b5937696c3183604051610cde919061196e565b60405180910390a3505050565b60008373ffffffffffffffffffffffffffffffffffffffff163b1115610e95578273ffffffffffffffffffffffffffffffffffffffff1663150b7a02868685856040518563ffffffff1660e01b8152600401610d4a94939291906120dc565b6020604051808303816000875af1925050508015610d8657506040513d601f19601f82011682018060405250810190610d83919061213d565b60015b610e0a573d8060008114610db6576040519150601f19603f3d011682016040523d82523d6000602084013e610dbb565b606091505b506000815103610e0257836040517f64a0ae92000000000000000000000000000000000000000000000000000000008152600401610df99190611adf565b60405180910390fd5b805181602001fd5b63150b7a0260e01b7bffffffffffffffffffffffffffffffffffffffffffffffffffffffff1916817bffffffffffffffffffffffffffffffffffffffffffffffffffffffff191614610e9357836040517f64a0ae92000000000000000000000000000000000000000000000000000000008152600401610e8a9190611adf565b60405180910390fd5b505b5050505050565b6060610ea782610883565b506000600660008481526020019081526020016000208054610ec890611fb3565b80601f0160208091040260200160405190810160405280929190818152602001828054610ef490611fb3565b8015610f415780601f10610f1657610100808354040283529160200191610f41565b820191906000526020600020905b815481529060010190602001808311610f2457829003601f168201915b505050505090506000610f526113d1565b90506000815103610f67578192505050610faa565b600082511115610f9c578082604051602001610f849291906121a6565b60405160208183030381529060405292505050610faa565b610fa5846113e8565b925050505b919050565b610fc9828260405180602001604052806000815250611451565b5050565b80600660008481526020019081526020016000209081610fed9190612376565b507ff8e1a15aba9398e019f0b49df1a4fde98ee17ae345cb5f6b5e2c27f5033e8ce78260405161101d9190611bf5565b60405180910390a15050565b60007f80ac58cd000000000000000000000000000000000000000000000000000000007bffffffffffffffffffffffffffffffffffffffffffffffffffffffff1916827bffffffffffffffffffffffffffffffffffffffffffffffffffffffff191614806110f457507f5b5e139f000000000000000000000000000000000000000000000000000000007bffffffffffffffffffffffffffffffffffffffffffffffffffffffff1916827bffffffffffffffffffffffffffffffffffffffffffffffffffffffff1916145b80611104575061110382611475565b5b9050919050565b60006002600083815260200190815260200160002060009054906101000a900473ffffffffffffffffffffffffffffffffffffffff169050919050565b80806111815750600073ffffffffffffffffffffffffffffffffffffffff168273ffffffffffffffffffffffffffffffffffffffff1614155b156112b557600061119184610883565b9050600073ffffffffffffffffffffffffffffffffffffffff168373ffffffffffffffffffffffffffffffffffffffff16141580156111fc57508273ffffffffffffffffffffffffffffffffffffffff168173ffffffffffffffffffffffffffffffffffffffff1614155b801561120f575061120d818461078e565b155b1561125157826040517fa9fbf51f0000000000000000000000000000000000000000000000000000000081526004016112489190611adf565b60405180910390fd5b81156112b357838573ffffffffffffffffffffffffffffffffffffffff168273ffffffffffffffffffffffffffffffffffffffff167f8c5be1e5ebec7d5bd14f71427d1e84f3dd0314c0f7b2291e5b200ac8c7c3b92560405160405180910390a45b505b836004600085815260200190815260200160002060006101000a81548173ffffffffffffffffffffffffffffffffffffffff021916908373ffffffffffffffffffffffffffffffffffffffff16021790555050505050565b6113188383836114df565b6113cc57600073ffffffffffffffffffffffffffffffffffffffff168373ffffffffffffffffffffffffffffffffffffffff160361138d57806040517f7e2732890000000000000000000000000000000000000000000000000000000081526004016113849190611bf5565b60405180910390fd5b81816040517f177e802f0000000000000000000000000000000000000000000000000000000081526004016113c3929190612448565b60405180910390fd5b505050565b606060405180602001604052806000815250905090565b60606113f382610883565b5060006113fe6113d1565b9050600081511161141e5760405180602001604052806000815250611449565b80611428846115a0565b6040516020016114399291906121a6565b6040516020818303038152906040525b915050919050565b61145b838361166e565b611470611466610948565b6000858585610ceb565b505050565b60007f01ffc9a7000000000000000000000000000000000000000000000000000000007bffffffffffffffffffffffffffffffffffffffffffffffffffffffff1916827bffffffffffffffffffffffffffffffffffffffffffffffffffffffff1916149050919050565b60008073ffffffffffffffffffffffffffffffffffffffff168373ffffffffffffffffffffffffffffffffffffffff161415801561159757508273ffffffffffffffffffffffffffffffffffffffff168473ffffffffffffffffffffffffffffffffffffffff1614806115585750611557848461078e565b5b8061159657508273ffffffffffffffffffffffffffffffffffffffff1661157e8361090b565b73ffffffffffffffffffffffffffffffffffffffff16145b5b90509392505050565b6060600060016115af84611767565b01905060008167ffffffffffffffff8111156115ce576115cd611c86565b5b6040519080825280601f01601f1916602001820160405280156116005781602001600182028036833780820191505090505b509050600082602001820190505b600115611663578080600190039150507f3031323334353637383961626364656600000000000000000000000000000000600a86061a8153600a858161165757611656612471565b5b0494506000850361160e575b819350505050919050565b600073ffffffffffffffffffffffffffffffffffffffff168273ffffffffffffffffffffffffffffffffffffffff16036116e05760006040517f64a0ae920000000000000000000000000000000000000000000000000000000081526004016116d79190611adf565b60405180910390fd5b60006116ee83836000610962565b9050600073ffffffffffffffffffffffffffffffffffffffff168173ffffffffffffffffffffffffffffffffffffffff16146117625760006040517f73c6ac6e0000000000000000000000000000000000000000000000000000000081526004016117599190611adf565b60405180910390fd5b505050565b600080600090507a184f03e93ff9f4daa797ed6e38ed64bf6a1f01000000000000000083106117c5577a184f03e93ff9f4daa797ed6e38ed64bf6a1f01000000000000000083816117bb576117ba612471565b5b0492506040810190505b6d04ee2d6d415b85acef81000000008310611802576d04ee2d6d415b85acef810000000083816117f8576117f7612471565b5b0492506020810190505b662386f26fc10000831061183157662386f26fc10000838161182757611826612471565b5b0492506010810190505b6305f5e100831061185a576305f5e10083816118505761184f612471565b5b0492506008810190505b612710831061187f57612710838161187557611874612471565b5b0492506004810190505b606483106118a2576064838161189857611897612471565b5b0492506002810190505b600a83106118b1576001810190505b80915050919050565b6000604051905090565b600080fd5b600080fd5b60007fffffffff0000000000000000000000000000000000000000000000000000000082169050919050565b611903816118ce565b811461190e57600080fd5b50565b600081359050611920816118fa565b92915050565b60006020828403121561193c5761193b6118c4565b5b600061194a84828501611911565b91505092915050565b60008115159050919050565b61196881611953565b82525050565b6000602082019050611983600083018461195f565b92915050565b600081519050919050565b600082825260208201905092915050565b60005b838110156119c35780820151818401526020810190506119a8565b60008484015250505050565b6000601f19601f8301169050919050565b60006119eb82611989565b6119f58185611994565b9350611a058185602086016119a5565b611a0e816119cf565b840191505092915050565b60006020820190508181036000830152611a3381846119e0565b905092915050565b6000819050919050565b611a4e81611a3b565b8114611a5957600080fd5b50565b600081359050611a6b81611a45565b92915050565b600060208284031215611a8757611a866118c4565b5b6000611a9584828501611a5c565b91505092915050565b600073ffffffffffffffffffffffffffffffffffffffff82169050919050565b6000611ac982611a9e565b9050919050565b611ad981611abe565b82525050565b6000602082019050611af46000830184611ad0565b92915050565b611b0381611abe565b8114611b0e57600080fd5b50565b600081359050611b2081611afa565b92915050565b60008060408385031215611b3d57611b3c6118c4565b5b6000611b4b85828601611b11565b9250506020611b5c85828601611a5c565b9150509250929050565b600080600060608486031215611b7f57611b7e6118c4565b5b6000611b8d86828701611b11565b9350506020611b9e86828701611b11565b9250506040611baf86828701611a5c565b9150509250925092565b600060208284031215611bcf57611bce6118c4565b5b6000611bdd84828501611b11565b91505092915050565b611bef81611a3b565b82525050565b6000602082019050611c0a6000830184611be6565b92915050565b611c1981611953565b8114611c2457600080fd5b50565b600081359050611c3681611c10565b92915050565b60008060408385031215611c5357611c526118c4565b5b6000611c6185828601611b11565b9250506020611c7285828601611c27565b9150509250929050565b600080fd5b600080fd5b7f4e487b7100000000000000000000000000000000000000000000000000000000600052604160045260246000fd5b611cbe826119cf565b810181811067ffffffffffffffff82111715611cdd57611cdc611c86565b5b80604052505050565b6000611cf06118ba565b9050611cfc8282611cb5565b919050565b600067ffffffffffffffff821115611d1c57611d1b611c86565b5b611d25826119cf565b9050602081019050919050565b82818337600083830152505050565b6000611d54611d4f84611d01565b611ce6565b905082815260208101848484011115611d7057611d6f611c81565b5b611d7b848285611d32565b509392505050565b600082601f830112611d9857611d97611c7c565b5b8135611da8848260208601611d41565b91505092915050565b60008060008060808587031215611dcb57611dca6118c4565b5b6000611dd987828801611b11565b9450506020611dea87828801611b11565b9350506040611dfb87828801611a5c565b925050606085013567ffffffffffffffff811115611e1c57611e1b6118c9565b5b611e2887828801611d83565b91505092959194509250565b600067ffffffffffffffff821115611e4f57611e4e611c86565b5b611e58826119cf565b9050602081019050919050565b6000611e78611e7384611e34565b611ce6565b905082815260208101848484011115611e9457611e93611c81565b5b611e9f848285611d32565b509392505050565b600082601f830112611ebc57611ebb611c7c565b5b8135611ecc848260208601611e65565b91505092915050565b600080600060608486031215611eee57611eed6118c4565b5b6000611efc86828701611b11565b9350506020611f0d86828701611a5c565b925050604084013567ffffffffffffffff811115611f2e57611f2d6118c9565b5b611f3a86828701611ea7565b9150509250925092565b60008060408385031215611f5b57611f5a6118c4565b5b6000611f6985828601611b11565b9250506020611f7a85828601611b11565b9150509250929050565b7f4e487b7100000000000000000000000000000000000000000000000000000000600052602260045260246000fd5b60006002820490506001821680611fcb57607f821691505b602082108103611fde57611fdd611f84565b5b50919050565b6000606082019050611ff96000830186611ad0565b6120066020830185611be6565b6120136040830184611ad0565b949350505050565b7f4e6f742061757468756f72697a65640000000000000000000000000000000000600082015250565b6000612051600f83611994565b915061205c8261201b565b602082019050919050565b6000602082019050818103600083015261208081612044565b9050919050565b600081519050919050565b600082825260208201905092915050565b60006120ae82612087565b6120b88185612092565b93506120c88185602086016119a5565b6120d1816119cf565b840191505092915050565b60006080820190506120f16000830187611ad0565b6120fe6020830186611ad0565b61210b6040830185611be6565b818103606083015261211d81846120a3565b905095945050505050565b600081519050612137816118fa565b92915050565b600060208284031215612153576121526118c4565b5b600061216184828501612128565b91505092915050565b600081905092915050565b600061218082611989565b61218a818561216a565b935061219a8185602086016119a5565b80840191505092915050565b60006121b28285612175565b91506121be8284612175565b91508190509392505050565b60008190508160005260206000209050919050565b60006020601f8301049050919050565b600082821b905092915050565b60006008830261222c7fffffffffffffffffffffffffffffffffffffffffffffffffffffffffffffffff826121ef565b61223686836121ef565b95508019841693508086168417925050509392505050565b6000819050919050565b600061227361226e61226984611a3b565b61224e565b611a3b565b9050919050565b6000819050919050565b61228d83612258565b6122a16122998261227a565b8484546121fc565b825550505050565b600090565b6122b66122a9565b6122c1818484612284565b505050565b5b818110156122e5576122da6000826122ae565b6001810190506122c7565b5050565b601f82111561232a576122fb816121ca565b612304846121df565b81016020851015612313578190505b61232761231f856121df565b8301826122c6565b50505b505050565b600082821c905092915050565b600061234d6000198460080261232f565b1980831691505092915050565b6000612366838361233c565b9150826002028217905092915050565b61237f82611989565b67ffffffffffffffff81111561239857612397611c86565b5b6123a28254611fb3565b6123ad8282856122e9565b600060209050601f8311600181146123e057600084156123ce578287015190505b6123d8858261235a565b865550612440565b601f1984166123ee866121ca565b60005b82811015612416578489015182556001820191506020850194506020810190506123f1565b86831015612433578489015161242f601f89168261233c565b8355505b6001600288020188555050505b505050505050565b600060408201905061245d6000830185611ad0565b61246a6020830184611be6565b9392505050565b7f4e487b7100000000000000000000000000000000000000000000000000000000600052601260045260246000fdfea2646970667358221220ab6019b40220c88d0326f8281078587a853b2e8bc229cb0b68ea10aa23aac37764736f6c634300081b0033",
  "linkReferences": {},
  "deployedLinkReferences": {}
}